:100000000C942A000C9447000C9447000C94470071
:100010000C9447000C9447000C9447000C94470044
:100020000C9447000C9447000C9447000C94470034
:100030000C9447000C9447000C9447000C94470024
:100040000C9447000C9447000C9447000C94470014
:100050000C94470011241FBECFE5D8E0DEBFCDBF12
:1000600010E0A0E6B0E0ECE8F7E202C005900D92E7
:10007000A238B107D9F710E0A2E8B0E001C01D92A4
:10008000A338B107E1F70E94A0100C94C4130C949C
:100090000000EF92FF920F931F937B018C0120E0F1
:1000A00030E040E05FE40E94490388238CF0C801FF
:1000B000B70120E030E040E05FE40E94C1010E940F
:1000C000A9039B01AC01205030404040504806C07D
:1000D000C801B7010E94A9039B01AC01B901CA0183
:1000E0001F910F91FF90EF900895A0E0B0E0EBE733
:1000F000F0E00C948D13DC012B01FA019C919230FD
:1001000008F439C1EB018881823008F433C194309E
:1001100069F4843009F02FC111969C91119789815F
:10012000981709F428C1A9E6B0E025C1843009F484
:1001300021C18230A9F4923009F01DC19A01AD01AC
:1001400088E0EA010990AE01E90109929E0181501F
:10015000C1F7E201898111969C918923818308C1AD
:10016000923009F407C112962D903C901397EB0141
:100170008A819B811496AD90BD90CD90DC901797AD
:10018000EC80FD800E811F819101281B390BB90184
:1001900037FF04C066277727621B730B6032710537
:1001A0000CF061C0121613066CF537014801062EDB
:1001B00004C096948794779467940A94D2F721E0C8
:1001C00030E040E050E004C0220F331F441F551FB1
:1001D0006A95D2F721503040404050402E213F21B7
:1001E00040235123211531054105510521F021E01E
:1001F00030E040E050E079018A01E628F72808293C
:1002000019293CC0232BD1F1260E371E350146019A
:10021000062E04C096948794779467940A94D2F734
:1002200021E030E040E050E004C0220F331F441FC3
:10023000551F6A95D2F721503040404050402A2146
:100240003B214C215D21211531054105510521F04E
:1002500021E030E040E050E059016A01A628B728CB
:10026000C828D9280BC0821593052CF01C01AA249C
:10027000BB24650103C0EE24FF24870111969C91E5
:10028000D20111968C91981709F445C0992339F041
:10029000A80197012A193B094C095D0906C0A6016E
:1002A00095012E193F09400B510B57FD08C01182D3
:1002B0003382228224833583468357831DC081E0A5
:1002C00081833382228288279927DC01821B930B4A
:1002D000A40BB50B84839583A683B7830DC0220F2F
:1002E000331F441F551F24833583468357838281E0
:1002F000938101979383828324813581468157813D
:10030000DA01C9010197A109B1098F5F9F4FAF4F72
:10031000BF4328F30BC0918333822282EA0CFB1C7B
:100320000C1D1D1DE482F5820683178383E0808304
:10033000248135814681578157FF1AC0C901AA27F8
:1003400097FDA095BA2F81709070A070B0705695EF
:10035000479537952795822B932BA42BB52B848318
:100360009583A683B7838281938101969383828349
:10037000DF0101C0D201CD01CDB7DEB7E2E10C94BF
:10038000A913A0E2B0E0E7ECF1E00C9499136983C3
:100390007A838B839C832D833E834F835887E9E048
:1003A000EE2EF12CEC0EFD1ECE010196B7010E943F
:1003B000D2048E010F5E1F4FCE010596B8010E9438
:1003C000D2048A8991E089278A8BC701B801AE01DE
:1003D000475E5F4F0E9475000E94FD03A096E6E015
:1003E0000C94B513A0E2B0E0E8EFF1E00C9499139F
:1003F00069837A838B839C832D833E834F835887C5
:10040000F9E0EF2EF12CEC0EFD1ECE010196B701A6
:100410000E94D2048E010F5E1F4FCE010596B801D7
:100420000E94D204C701B801AE01475E5F4F0E942F
:1004300075000E94FD03A096E6E00C94B513A0E2BF
:10044000B0E0E5E2F2E00C948D1369837A838B834C
:100450009C832D833E834F835887CE010196BE0136
:10046000675F7F4F0E94D204CE010596BE016F5E8A
:100470007F4F0E94D2049985923088F0898982301A
:10048000C8F0943019F4823051F404C0843029F457
:10049000923081F489E690E0C6C0923049F420E0C1
:1004A0009A858A89981321E02A87CE010996BBC0D4
:1004B000823049F420E09A858A89981321E02A8BBA
:1004C000CE014196B0C02D843E844F8458886D88FB
:1004D0007E888F88988CEE24FF248701AA24BB2471
:1004E000650140E050E060E070E0E0E0F0E0C10174
:1004F00081709070892BE9F0E60CF71C081D191D1E
:100500009A01AB012A0D3B1D4C1D5D1D80E090E062
:10051000A0E0B0E0E614F7040805190520F481E036
:1005200090E0A0E0B0E0BA01A901480F591F6A1F8E
:100530007B1FAA0CBB1CCC1CDD1C97FE08C081E0F5
:1005400090E0A0E0B0E0A82AB92ACA2ADB2A3196B6
:10055000E032F10549F0660C771C881C991C569412
:10056000479437942794C3CFFA85EA892B893C892D
:100570008B859C85280F391F2E5F3F4F17C0CA01FE
:1005800081709070892B61F016950795F794E79428
:1005900080E090E0A0E0B0E8E82AF92A0A2B1B2BC3
:1005A00076956795579547952F5F3F4F77FDE7CF36
:1005B0000CC0440F551F661F771F17FD4160EE0CDE
:1005C000FF1C001F111F21503040403090E05907A0
:1005D00090E0690790E4790760F32B8F3C8FDB0193
:1005E000CA018F779070A070B07080349105A1051A
:1005F000B10561F447FD0AC0E114F10401051105DC
:1006000029F0405C5F4F6F4F7F4F40781A8EFE1786
:1006100011F081E08A8F4D8F5E8F6F8F78A383E01A
:10062000898FCE0149960E94FD03A096E2E10C94C9
:10063000A913A8E1B0E0EFE1F3E00C94991369830A
:100640007A838B839C832D833E834F83588789E0F5
:10065000E82EF12CEC0EFD1ECE010196B7010E9492
:10066000D2048E010F5E1F4FCE010596B8010E9485
:10067000D2048985823040F08989823028F0C70110
:10068000B8010E944A0501C08FEF6896E6E00C941D
:10069000B513A8E1B0E0EFE4F3E00C94991369839B
:1006A0007A838B839C832D833E834F83588789E095
:1006B000E82EF12CEC0EFD1ECE010196B7010E9432
:1006C000D2048E010F5E1F4FCE010596B8010E9425
:1006D000D2048985823040F08989823028F0C701B0
:1006E000B8010E944A0501C08FEF6896E6E00C94BD
:1006F000B513A8E1B0E0EFE7F3E00C949913698338
:100700007A838B839C832D833E834F83588789E034
:10071000E82EF12CEC0EFD1ECE010196B7010E94D1
:10072000D2048E010F5E1F4FCE010596B8010E94C4
:10073000D2048985823040F08989823028F0C7014F
:10074000B8010E944A0501C081E06896E6E00C9479
:10075000B513ACE0B0E0EFEAF3E00C949D136983CD
:100760007A838B839C83CE010196BE016B5F7F4FA2
:100770000E94D2048D81823061F1823050F1843048
:1007800021F48E81882351F12EC02F81388537FDC9
:1007900020C06E812F3131051CF06623F9F023C093
:1007A0008EE190E0821B930B29853A854B855C8511
:1007B00004C056954795379527958A95D2F76623B5
:1007C000B1F050954095309521953F4F4F4F5F4F79
:1007D0000EC020E030E040E050E009C02FEF3FEFD6
:1007E0004FEF5FE704C020E030E040E050E8B9019F
:1007F000CA012C96E2E00C94B913DF92EF92FF92BB
:100800000F931F93FC01E480F58006811781D1804E
:100810008081823048F480E090E0A0E1B0E0E82AF6
:10082000F92A0A2B1B2BA5C0843009F49FC0823003
:1008300021F4EE24FF24870105C0E114F104010531
:10084000110519F4E0E0F0E096C0628173819FEF3A
:10085000623879070CF05BC022E83FEF261B370BAC
:100860002A3131052CF020E030E040E050E02AC091
:10087000B801A701022E04C0769567955795479554
:100880000A94D2F781E090E0A0E0B0E004C0880FC5
:10089000991FAA1FBB1F2A95D2F70197A109B10979
:1008A0008E219F21A023B1230097A105B10521F03E
:1008B00081E090E0A0E0B0E09A01AB01282B392B59
:1008C0004A2B5B2BDA01C9018F779070A070B07052
:1008D00080349105A105B10539F427FF09C0205CDA
:1008E0003F4F4F4F5F4F04C0215C3F4F4F4F5F4F13
:1008F000E0E0F0E02030A0E03A07A0E04A07A0E402
:100900005A0710F0E1E0F0E079018A0127C0603871
:10091000710564F5FB01E158FF4FD801C7018F77DE
:100920009070A070B07080349105A105B10539F4C4
:10093000E7FE0DC080E490E0A0E0B0E004C08FE3EB
:1009400090E0A0E0B0E0E80EF91E0A1F1B1F17FFA1
:1009500005C016950795F794E794319687E01695AC
:100960000795F794E7948A95D1F705C0EE24FF2404
:100970008701EFEFF0E06E2F679566276795902F60
:100980009F77D794DD24D7948E2F8695492F462BB9
:10099000582F5D29B701CA011F910F91FF90EF9069
:1009A000DF900895FC01DB01408151812281622F9B
:1009B0006F7770E0221F2227221F9381892F880FD3
:1009C000822B282F30E0991F9927991F11969C930D
:1009D000119721153105A9F54115510561057105DD
:1009E00011F482E037C082E89FEF13969C938E93B8
:1009F00012979A01AB0167E0220F331F441F551F66
:100A00006A95D1F783E08C930DC0220F331F441FEA
:100A1000551F12968D919C911397019713969C9355
:100A20008E931297203080E0380780E0480780E4FA
:100A3000580758F314962D933D934D935C93179755
:100A400008952F3F310579F4411551056105710570
:100A500019F484E08C93089564FF03C081E08C93C3
:100A600012C01C9210C02F57304013963C932E9307
:100A7000129783E08C9387E0440F551F661F771F02
:100A80008A95D1F7706414964D935D936D937C9322
:100A9000179708951F93DC01FB019C91923008F495
:100AA00047C08081823008F443C0943051F41196DD
:100AB0001C91843099F58181682F70E0611B710968
:100AC0003FC0843021F0923031F48230B9F181811D
:100AD000882389F12DC011961C9111978230F1F075
:100AE00081811817D9F412962D913C911397828128
:100AF00093818217930794F028173907BCF0149656
:100B00008D919D910D90BC91A02D248135814681C0
:100B10005781281739074A075B0718F4112341F05A
:100B20000AC082179307A407B50740F4112319F0F0
:100B300061E070E005C06FEF7FEF02C060E070E041
:100B4000CB011F910895DF93CF93CDB7DEB72D97DB
:100B50000FB6F894DEBF0FBECDBF89836A834B8387
:100B60008981843008F008C18A81883008F004C186
:100B70008B81823008F000C18981282F30E03D87C9
:100B80002C878C859D858130910509F44FC02C857B
:100B90003D85223031052CF48C859D85009771F0C0
:100BA000EBC02C853D852230310509F477C08C855A
:100BB0009D858330910509F4A9C0DEC08B81282F63
:100BC00030E03B872A878A859B850097D1F02A856C
:100BD0003B852130310509F0CFC0AAE3B0E0EAE35C
:100BE000F0E08081482F8A81282F30E081E090E07A
:100BF000022E02C0880F991F0A94E2F7842B8C936F
:100C0000BBC0AAE3B0E0EAE3F0E08081482F8A812C
:100C1000282F30E081E090E0022E02C0880F991F5B
:100C20000A94E2F7809584238C93A6C08B81282FA9
:100C300030E039872887888599850097D1F0288505
:100C400039852130310509F097C0A7E3B0E0E7E32B
:100C5000F0E08081482F8A81282F30E081E090E009
:100C6000022E02C0880F991F0A94E2F7842B8C93FE
:100C700083C0A7E3B0E0E7E3F0E08081482F8A81FA
:100C8000282F30E081E090E0022E02C0880F991FEB
:100C90000A94E2F7809584238C936EC08B81282F71
:100CA00030E03F832E838E819F810097D1F02E818B
:100CB0003F812130310509F05FC0A4E3B0E0E4E3F7
:100CC000F0E08081482F8A81282F30E081E090E099
:100CD000022E02C0880F991F0A94E2F7842B8C938E
:100CE0004BC0A4E3B0E0E4E3F0E08081482F8A81C8
:100CF000282F30E081E090E0022E02C0880F991F7B
:100D00000A94E2F7809584238C9336C08B81282F38
:100D100030E03D832C838C819D810097C9F02C812C
:100D20003D812130310541F5A1E3B0E0E1E3F0E0A0
:100D30008081482F8A81282F30E081E090E0022EC8
:100D400002C0880F991F0A94E2F7842B8C9314C079
:100D5000A1E3B0E0E1E3F0E08081482F8A81282F11
:100D600030E081E090E0022E02C0880F991F0A94C3
:100D7000E2F7809584238C932D960FB6F894DEBF0E
:100D80000FBECDBFCF91DF910895DF93CF93CDB745
:100D9000DEB72D970FB6F894DEBF0FBECDBF8983A7
:100DA0006A834B838981843008F008C18A81883046
:100DB00008F004C18B81823008F000C18981282F9E
:100DC00030E03D872C878C859D858130910509F425
:100DD0004FC02C853D85223031052CF48C859D85B6
:100DE000009771F0EBC02C853D852230310509F468
:100DF00077C08C859D858330910509F4A9C0DEC03C
:100E00008B81282F30E03B872A878A859B85009736
:100E1000D1F02A853B852130310509F0CFC0ABE305
:100E2000B0E0EBE3F0E08081482F8A81282F30E0AA
:100E300081E090E0022E02C0880F991F0A94E2F729
:100E4000842B8C93BBC0ABE3B0E0EBE3F0E080819C
:100E5000482F8A81282F30E081E090E0022E02C0E6
:100E6000880F991F0A94E2F7809584238C93A6C07B
:100E70008B81282F30E039872887888599850097CE
:100E8000D1F0288539852130310509F097C0A8E3D4
:100E9000B0E0E8E3F0E08081482F8A81282F30E03D
:100EA00081E090E0022E02C0880F991F0A94E2F7B9
:100EB000842B8C9383C0A8E3B0E0E8E3F0E080816A
:100EC000482F8A81282F30E081E090E0022E02C076
:100ED000880F991F0A94E2F7809584238C936EC043
:100EE0008B81282F30E03F832E838E819F81009756
:100EF000D1F02E813F812130310509F05FC0A5E39B
:100F0000B0E0E5E3F0E08081482F8A81282F30E0CF
:100F100081E090E0022E02C0880F991F0A94E2F748
:100F2000842B8C934BC0A5E3B0E0E5E3F0E0808137
:100F3000482F8A81282F30E081E090E0022E02C005
:100F4000880F991F0A94E2F7809584238C9336C00A
:100F50008B81282F30E03D832C838C819D810097ED
:100F6000C9F02C813D812130310541F5A2E3B0E08B
:100F7000E2E3F0E08081482F8A81282F30E081E091
:100F800090E0022E02C0880F991F0A94E2F7842B8A
:100F90008C9314C0A2E3B0E0E2E3F0E08081482F3C
:100FA0008A81282F30E081E090E0022E02C0880F75
:100FB000991F0A94E2F7809584238C932D960FB69F
:100FC000F894DEBF0FBECDBFCF91DF910895DF93C0
:100FD000CF9300D000D00F92CDB7DEB78A836B835A
:100FE00083E089838A81843008F06BC08B818830EC
:100FF00008F067C08A81282F30E03D832C834C8124
:101000005D814130510541F18C819D818230910596
:1010100034F42C813D812115310561F052C04C81A1
:101020005D814230510551F18C819D818330910564
:10103000B9F147C0E9E3F0E08081282F30E08B81EF
:10104000882F90E0A90102C0559547958A95E2F74F
:10105000CA018170898335C0E6E3F0E08081282FE2
:1010600030E08B81882F90E0A90102C0559547950B
:101070008A95E2F7CA018170898323C0E3E3F0E037
:101080008081282F30E08B81882F90E0A90102C059
:10109000559547958A95E2F7CA018170898311C0F9
:1010A000E0E3F0E08081282F30E08B81882F90E012
:1010B000A90102C0559547958A95E2F7CA0181704A
:1010C000898389810F900F900F900F900F90CF918F
:1010D000DF910895DF93CF9300D000D0CDB7DEB776
:1010E00089836A838981843090F58981282F30E053
:1010F0003C832B838B819C8181309105D1F02B81A6
:101100003C81223031052CF48B819C81009761F069
:101110001EC02B813C812230310581F08B819C8166
:101120008330910581F013C0EAE3F0E08A81808387
:101130000EC0E7E3F0E08A81808309C0E4E3F0E0D9
:101140008A81808304C0E1E3F0E08A8180830F908C
:101150000F900F900F90CF91DF910895DF93CF9371
:1011600000D000D0CDB7DEB789836A83898184300F
:1011700090F58981282F30E03C832B838B819C81E3
:1011800081309105D1F02B813C81223031052CF446
:101190008B819C81009761F01EC02B813C812230A5
:1011A000310581F08B819C818330910581F013C0E2
:1011B000EBE3F0E08A8180830EC0E8E3F0E08A810F
:1011C000808309C0E5E3F0E08A81808304C0E2E324
:1011D000F0E08A8180830F900F900F900F90CF9155
:1011E000DF910895DF93CF93CDB7DEB76D970FB63C
:1011F000F894DEBF0FBECDBF8D8F81E060E041E08F
:101200000E94A30581E061E041E00E94A30581E026
:1012100060E040E00E94C50681E061E040E00E949D
:10122000C50680E061E00E946A0880E06D8D0E9442
:10123000AE0881E062E041E00E94A30581E062E047
:1012400041E00E94C50680E090E0A0E8BFE3898FFE
:101250009A8FAB8FBC8F698D7A8D8B8D9C8D20E0A2
:1012600030E04AEF54E40E941F02DC01CB018D8B79
:101270009E8BAF8BB88F6D897E898F89988D20E08A
:1012800030E040E85FE30E94790388232CF481E09A
:1012900090E09C8B8B8B3FC06D897E898F89988D68
:1012A00020E03FEF4FE757E40E94190318164CF572
:1012B000698D7A8D8B8D9C8D20E030E040E251E489
:1012C0000E941F02DC01CB01BC01CD010E9449003C
:1012D000DC01CB019C8B8B8B0FC088EC90E09A8B50
:1012E000898B89899A890197F1F79A8B898B8B89E8
:1012F0009C8901979C8B8B8B8B899C89009769F7C4
:1013000014C06D897E898F89988D0E944900DC0107
:10131000CB019C8B8B8B8B899C89988B8F878F853E
:1013200098890197F1F7988B8F8781E062E040E020
:101330000E94C50680E090E0A0E8BFE38B879C8711
:10134000AD87BE876B857C858D859E8520E030E0EE
:101350004AEF54E40E941F02DC01CB018F8398877F
:10136000A987BA876F81788589859A8520E030E0E2
:1013700040E85FE30E94790388232CF481E090E049
:101380009E838D833FC06F81788589859A8520E013
:101390003FEF4FE757E40E94190318164CF56B8591
:1013A0007C858D859E8520E030E040E251E40E94FE
:1013B0001F02DC01CB01BC01CD010E944900DC0110
:1013C000CB019E838D830FC088EC90E09C838B8340
:1013D0008B819C810197F1F79C838B838D819E810A
:1013E00001979E838D838D819E81009769F714C03C
:1013F0006F81788589859A850E944900DC01CB013F
:101400009E838D838D819E819A83898389819A8130
:101410000197F1F79A8389836D960FB6F894DEBF32
:101420000FBECDBFCF91DF910895DF93CF93CDB79E
:10143000DEB76D970FB6F894DEBF0FBECDBF8D8FB0
:1014400081E060E041E00E94A30581E061E041E0CD
:101450000E94A30581E060E041E00E94C50681E0B2
:1014600061E040E00E94C50680E061E00E946A08F9
:1014700080E06D8D0E94AE0881E062E041E00E9454
:10148000A30581E062E041E00E94C50680E090E0B3
:10149000A0E8BFE3898F9A8FAB8FBC8F698D7A8D5F
:1014A0008B8D9C8D20E030E04AEF54E40E941F02B7
:1014B000DC01CB018D8B9E8BAF8BB88F6D897E89C4
:1014C0008F89988D20E030E040E85FE30E94790347
:1014D00088232CF481E090E09C8B8B8B3FC06D893E
:1014E0007E898F89988D20E03FEF4FE757E40E9477
:1014F000190318164CF5698D7A8D8B8D9C8D20E023
:1015000030E040E251E40E941F02DC01CB01BC014B
:10151000CD010E944900DC01CB019C8B8B8B0FC05D
:1015200088EC90E09A8B898B89899A890197F1F7E9
:101530009A8B898B8B899C8901979C8B8B8B8B8950
:101540009C89009769F714C06D897E898F89988D71
:101550000E944900DC01CB019C8B8B8B8B899C8981
:10156000988B8F878F8598890197F1F7988B8F8754
:1015700081E062E040E00E94C50680E090E0A0E8E3
:10158000BFE38B879C87AD87BE876B857C858D8508
:101590009E8520E030E04AEF54E40E941F02DC0107
:1015A000CB018F839887A987BA876F8178858985D2
:1015B0009A8520E030E040E85FE30E9479038823C9
:1015C0002CF481E090E09E838D833FC06F8178850D
:1015D00089859A8520E03FEF4FE757E40E94190381
:1015E00018164CF56B857C858D859E8520E030E056
:1015F00040E251E40E941F02DC01CB01BC01CD019D
:101600000E944900DC01CB019E838D830FC088ECD2
:1016100090E09C838B838B819C810197F1F79C8365
:101620008B838D819E8101979E838D838D819E8189
:10163000009769F714C06F81788589859A850E9423
:101640004900DC01CB019E838D838D819E819A832D
:10165000898389819A810197F1F79A8389836D96AD
:101660000FB6F894DEBF0FBECDBFCF91DF910895C6
:101670000F931F93DF93CF93CDB7DEB7C654D040FF
:101680000FB6F894DEBF0FBECDBFFE01ED5BFF4F7E
:1016900080E090E0A0EFB1E480839183A283B383E4
:1016A0008E01015C1F4FFE01ED5BFF4F6081718178
:1016B0008281938120E030E04AEF54E40E941F02CF
:1016C000DC01CB01F80180839183A283B383FE0107
:1016D000FF96608171818281938120E030E040E853
:1016E0005FE30E94790388232CF481E090E09EAFB1
:1016F0008DAF46C0FE01FF9660817181828193812A
:1017000020E03FEF4FE757E40E941903181664F5F5
:10171000FE01ED5BFF4F608171818281938120E04A
:1017200030E040E251E40E941F02DC01CB01BC0129
:10173000CD010E944900DC01CB019EAF8DAF0FC0EF
:1017400088EC90E09CAF8BAF8BAD9CAD0197F1F72F
:101750009CAF8BAF8DAD9EAD01979EAF8DAF8DAD24
:101760009EAD009769F716C0FE01FF9660817181FA
:10177000828193810E944900DC01CB019EAF8DAF35
:101780008DAD9EAD9AAF89AF89AD9AAD0197F1F756
:101790009AAF89AF8CE30E94F20880E090E0A0E865
:1017A000BFE38DAB9EABAFABB8AF6DA97EA98FA9E0
:1017B00098AD20E030E04AEF54E40E941F02DC01C3
:1017C000CB0189AB9AABABABBCAB69A97AA98BA9AE
:1017D0009CA920E030E040E85FE30E947903882381
:1017E0002CF481E090E098AB8FA73FC069A97AA95B
:1017F0008BA99CA920E03FEF4FE757E40E94190313
:1018000018164CF56DA97EA98FA998AD20E030E09F
:1018100040E251E40E941F02DC01CB01BC01CD017A
:101820000E944900DC01CB0198AB8FA70FC088EC68
:1018300090E09EA78DA78DA59EA50197F1F79EA785
:101840008DA78FA598A9019798AB8FA78FA598A969
:10185000009769F714C069A97AA98BA99CA90E946D
:101860004900DC01CB0198AB8FA78FA598A99CA755
:101870008BA78BA59CA50197F1F79CA78BA78CE064
:101880000E94F20880E090E0A0E8BFE38FA398A751
:10189000A9A7BAA76FA178A589A59AA520E030E0ED
:1018A0004AEF54E40E941F02DC01CB018BA39CA3EE
:1018B000ADA3BEA36BA17CA18DA19EA120E030E0D1
:1018C00040E85FE30E94790388232CF481E090E0F4
:1018D0009AA389A33FC06BA17CA18DA19EA120E00A
:1018E0003FEF4FE757E40E94190318164CF56FA11C
:1018F00078A589A59AA520E030E040E251E40E9455
:101900001F02DC01CB01BC01CD010E944900DC01BA
:10191000CB019AA389A30FC088EC90E098A38F8F86
:101920008F8D98A10197F1F798A38F8F89A19AA124
:1019300001979AA389A389A19AA1009769F714C076
:101940006BA17CA18DA19EA10E944900DC01CB016D
:101950009AA389A389A19AA19E8F8D8F8D8D9E8D2B
:101960000197F1F79E8F8D8F81E00E94F20880E051
:1019700090E0A0E8BFE3898F9A8FAB8FBC8F698D11
:101980007A8D8B8D9C8D20E030E04AEF54E40E94EC
:101990001F02DC01CB018D8B9E8BAF8BB88F6D89C5
:1019A0007E898F89988D20E030E040E85FE30E94D7
:1019B000790388232CF481E090E09C8B8B8B3FC0D3
:1019C0006D897E898F89988D20E03FEF4FE757E43E
:1019D0000E94190318164CF5698D7A8D8B8D9C8D9C
:1019E00020E030E040E251E40E941F02DC01CB0124
:1019F000BC01CD010E944900DC01CB019C8B8B8B8B
:101A00000FC088EC90E09A8B898B89899A8901971D
:101A1000F1F79A8B898B8B899C8901979C8B8B8B97
:101A20008B899C89009769F714C06D897E898F899D
:101A3000988D0E944900DC01CB019C8B8B8B8B899C
:101A40009C89988B8F878F8598890197F1F7988B60
:101A50008F8780E090E0A0E0B0E48B879C87AD8723
:101A6000BE876B857C858D859E8520E030E04AEFC2
:101A700054E40E941F02DC01CB018F839887A98761
:101A8000BA876F81788589859A8520E030E040E8C3
:101A90005FE30E94790388232CF481E090E09E8329
:101AA0008D833FC06F81788589859A8520E03FEFDF
:101AB0004FE757E40E94190318164CF56B857C8597
:101AC0008D859E8520E030E040E251E40E941F02B7
:101AD000DC01CB01BC01CD010E944900DC01CB013E
:101AE0009E838D830FC088EC90E09C838B838B81D9
:101AF0009C810197F1F79C838B838D819E81019757
:101B00009E838D838D819E81009769F714C06F81BC
:101B1000788589859A850E944900DC01CB019E83E6
:101B20008D838D819E819A83898389819A81019792
:101B3000F1F79A83898386E00E94F208CA5BDF4F3F
:101B40000FB6F894DEBF0FBECDBFCF91DF911F91CE
:101B50000F910895DF93CF93CDB7DEB72E970FB6D1
:101B6000F894DEBF0FBECDBF81E00E94F20880E096
:101B700090E0A0E0B0E48B879C87AD87BE876B8543
:101B80007C858D859E8520E030E04AEF54E40E94FC
:101B90001F02DC01CB018F839887A987BA876F81E9
:101BA000788589859A8520E030E040E85FE30E94EF
:101BB000790388232CF481E090E09E838D833FC0DD
:101BC0006F81788589859A8520E03FEF4FE757E45C
:101BD0000E94190318164CF56B857C858D859E85B2
:101BE00020E030E040E251E40E941F02DC01CB0122
:101BF000BC01CD010E944900DC01CB019E838D8395
:101C00000FC088EC90E09C838B838B819C81019733
:101C1000F1F79C838B838D819E8101979E838D83B9
:101C20008D819E81009769F714C06F8178858985C1
:101C30009A850E944900DC01CB019E838D838D81B2
:101C40009E819A83898389819A810197F1F79A838A
:101C500089832E960FB6F894DEBF0FBECDBFCF910D
:101C6000DF910895DF93CF9300D00F92CDB7DEB709
:101C70009B838A8319820FC08981282F30E08A8153
:101C80009B81FC01E20FF31F908189818F5F898323
:101C9000892F0E94150A8981282F30E08A819B8133
:101CA000FC01E20FF31F8081882F90E020E0803656
:101CB000920711F70F900F900F90CF91DF91089539
:101CC000DF93CF9300D000D0CDB7DEB789836A838E
:101CD0008A81282F30E03C832B838B819C81009765
:101CE00031F02B813C812130310531F009C08981EF
:101CF00080580E94F20804C0898180540E94F20832
:101D00000F900F900F900F90CF91DF910895EF9269
:101D1000FF920F931F93DF93CF93CDB7DEB7299731
:101D20000FB6F894DEBF0FBECDBF6E837F8388876A
:101D300099878E819F81A885B9850097A105B105F6
:101D400021F480E30E946C0FBAC01A821B821C82AD
:101D50001D8219828E819F81A885B985BB2344F598
:101D60008DE20E946C0F8E819F81A885B985B09508
:101D7000A095909581959F4FAF4FBF4F8E839F83C6
:101D8000A887B98715C089818F5F89838E819F81DC
:101D9000A885B9852AE030E040E050E0BC01CD01E3
:101DA0000E947213DA01C9018E839F83A887B987C5
:101DB0008E819F81A885B9852AE030E040E050E01F
:101DC000BC01CD010E947213DC01CB010097A1057B
:101DD000B105C9F236C08A819B81AC81BD812AE000
:101DE00030E040E050E0BC01CD010E9431137B01A6
:101DF0008C018E819F81A885B9852AE030E040E082
:101E000050E0BC01CD010E947213DC01CB018E0DAC
:101E10009F1DA01FB11F8A839B83AC83BD838E81CE
:101E20009F81A885B9852AE030E040E050E0BC0100
:101E3000CD010E947213DA01C9018E839F83A887A6
:101E4000B9878E819F81A885B9850097A105B105C5
:101E500011F623C08A819B81AC81BD812AE030E0EC
:101E600040E050E0BC01CD010E945013DC01CB01E9
:101E7000805D0E94150A8A819B81AC81BD812AE028
:101E800030E040E050E0BC01CD010E945013DA0187
:101E9000C9018A839B83AC83BD838A819B81AC818A
:101EA000BD810097A105B105A9F606C080E30E9497
:101EB0006C0F89818150898389818823B9F729969C
:101EC0000FB6F894DEBF0FBECDBFCF91DF911F914B
:101ED0000F91FF90EF900895DF93CF930F92CDB7BE
:101EE000DEB7898389810E94150A0F90CF91DF9117
:101EF0000895DF93CF9300D000D0CDB7DEB78A83AB
:101F00007C836B838A81882F90E00896880F991FC5
:101F1000880F991F880F991F0E94F20819820EC01E
:101F20008981282F30E08B819C81FC01E20FF31F17
:101F300080810E94150A89818F5F89838981883019
:101F400078F380E80E94F2080F900F900F900F90A6
:101F5000CF91DF910895DF93CF930F92CDB7DEB786
:101F600089838981883018F489810E94150A0F902D
:101F7000CF91DF910895DF93CF930F92CDB7DEB766
:101F80008983898180938200809182006FE00E9422
:101F90006A08809182006FEF0E94AE080F90CF9187
:101FA000DF910895DF93CF93CDB7DEB761970FB67A
:101FB000F894DEBF0FBECDBF80E2898B188AB2C015
:101FC00080918200688940E00E94C5061F869DC0FE
:101FD000209182008F85982F9C5F822F692F0E940D
:101FE000E707882391F48F85482F50E08889282FB0
:101FF00030E0CA01880F991F880F991F820F931F25
:10200000FC01EF58FF4F8081898B209182008F85E2
:10201000982F9C5F822F692F0E94E7078823A9F3DE
:1020200080E090E0A0EAB0E48B879C87AD87BE8714
:102030006B857C858D859E8520E030E04AEF54E4F9
:102040000E941F02DC01CB018F839887A987BA8782
:102050006F81788589859A8520E030E040E85FE3EC
:102060000E94790388232CF481E090E09E838D8385
:102070003FC06F81788589859A8520E03FEF4FE7E3
:1020800057E40E94190318164CF56B857C858D85E5
:102090009E8520E030E040E251E40E941F02DC0116
:1020A000CB01BC01CD010E944900DC01CB019E8324
:1020B0008D830FC088EC90E09C838B838B819C8107
:1020C0000197F1F79C838B838D819E8101979E837D
:1020D0008D838D819E81009769F714C06F8178850B
:1020E00089859A850E944900DC01CB019E838D83FE
:1020F0008D819E819A83898389819A810197F1F7E5
:102100009A8389838F858F5F8F878F85843008F4CA
:102110005FCF80918200688941E00E94C50688896E
:102120008F5F888B8889843008F44ACF89896196CB
:102130000FB6F894DEBF0FBECDBFCF91DF910895EB
:10214000DF93CF93CDB7DEB7AA970FB6F894DEBF73
:102150000FBECDBF80E06FEF0E946A0881E06FEF95
:102160000E946A080E94380B82E00E94BB0F1FA2E7
:1021700018A619A61AA61EA21AA21BA21CA21DA26C
:102180000E94D20F89A389A1803328F189A18A33C3
:1021900010F58FA198A5A9A5BAA52AE030E040E0E6
:1021A00050E0BC01CD010E9431139B01AC0189A11B
:1021B000882F90E0C097AA2797FDA095BA2F820F8D
:1021C000931FA41FB51F8FA398A7A9A7BAA789A17A
:1021D0000E94150AD5CF89A18D32A1F48FA198A5AF
:1021E000A9A5BAA50097A105B10551F68FEF9FEFFC
:1021F000AFEFBFEF8FA398A7A9A7BAA789A10E94A5
:10220000150ABECF89A1833661F41FA218A619A6AC
:102210001AA61EA21AA21BA21CA21DA20E94AA0DEF
:10222000AFCF89A18B3239F089A18A3221F089A1FF
:102230008F3209F015C18EA1882309F4FBC08EA14D
:102240008B3289F48AA19BA1ACA1BDA12FA138A595
:1022500049A55AA5820F931FA41FB51F8AA39BA34C
:10226000ACA3BDA3E3C08EA18D3289F48AA19BA14A
:10227000ACA1BDA12FA138A549A55AA5821B930BDE
:10228000A40BB50B8AA39BA3ACA3BDA3CFC08EA107
:102290008A3231F58FA198A5A9A5BAA50097A10505
:1022A000B10559F48FA198A5A9A5BAA50196A11DBC
:1022B000B11D8FA398A7A9A7BAA78AA19BA1ACA17A
:1022C000BDA12FA138A549A55AA5BC01CD010E94E9
:1022D0003113DC01CB018AA39BA3ACA3BDA3A6C091
:1022E0008EA18F3209F0A2C08FA198A5A9A5BAA589
:1022F0000097A105B10599F08AA19BA1ACA1BDA150
:102300002FA138A549A55AA5BC01CD010E94721381
:10231000DA01C9018AA39BA3ACA3BDA387C082E64F
:1023200090E00E94320E18A21F8E77C080E090E0ED
:10233000A0E8BFE3898F9A8FAB8FBC8F698D7A8DB0
:102340008B8D9C8D20E030E04AEF54E40E941F0208
:10235000DC01CB018D8B9E8BAF8BB88F6D897E8915
:102360008F89988D20E030E040E85FE30E94790398
:1023700088232CF481E090E09C8B8B8B3FC06D898F
:102380007E898F89988D20E03FEF4FE757E40E94C8
:10239000190318164CF5698D7A8D8B8D9C8D20E074
:1023A00030E040E251E40E941F02DC01CB01BC019D
:1023B000CD010E944900DC01CB019C8B8B8B0FC0AF
:1023C00088EC90E09A8B898B89899A890197F1F73B
:1023D0009A8B898B8B899C8901979C8B8B8B8B89A2
:1023E0009C89009769F714C06D897E898F89988DC3
:1023F0000E944900DC01CB019C8B8B8B8B899C89D3
:10240000988B8F878F8598890197F1F7988B8F87A5
:102410008F8D98A1019698A38F8F8F8D98A127E01B
:10242000803D920708F482CF0E94AA0D89A10E94E4
:10243000150A08C08FA198A5A9A5BAA58AA39BA330
:10244000ACA3BDA31FA218A619A61AA689A18EA384
:1024500089A18F3209F094CE89A10E94150A90CEED
:1024600089A18D3309F08CCE8EA1882309F488CE02
:102470008EA18B3289F48AA19BA1ACA1BDA12FA111
:1024800038A549A55AA5820F931FA41FB51F8AA37B
:102490009BA3ACA3BDA3D0C08EA18D3289F48AA129
:1024A0009BA1ACA1BDA12FA138A549A55AA5821B0E
:1024B000930BA40BB50B8AA39BA3ACA3BDA3BCC079
:1024C0008EA18A3299F48AA19BA1ACA1BDA12FA1B2
:1024D00038A549A55AA5BC01CD010E943113DC01E4
:1024E000CB018AA39BA3ACA3BDA3A6C08EA18F32B0
:1024F00009F0A2C08FA198A5A9A5BAA50097A1052A
:10250000B10599F08AA19BA1ACA1BDA12FA138A5CD
:1025100049A55AA5BC01CD010E947213DA01C90177
:102520008AA39BA3ACA3BDA387C082E690E00E94D0
:10253000320E1E8E1D8E77C080E090E0A0E8BFE3D3
:102540008B879C87AD87BE876B857C858D859E85B7
:1025500020E030E04AEF54E40E941F02DC01CB018E
:102560008F839887A987BA876F81788589859A85AF
:1025700020E030E040E85FE30E94790388232CF4F8
:1025800081E090E09E838D833FC06F81788589854F
:102590009A8520E03FEF4FE757E40E941903181691
:1025A0004CF56B857C858D859E8520E030E040E292
:1025B00051E40E941F02DC01CB01BC01CD010E944D
:1025C0004900DC01CB019E838D830FC088EC90E035
:1025D0009C838B838B819C810197F1F79C838B83F8
:1025E0008D819E8101979E838D838D819E81009731
:1025F00069F714C06F81788589859A850E944900A2
:10260000DC01CB019E838D838D819E819A8389839A
:1026100089819A810197F1F79A8389838D8D9E8DA7
:1026200001969E8F8D8F8D8D9E8D27E0803D920728
:1026300008F482CF0E94AA0D8DE30E946C0F8AA13C
:102640009BA1ACA1BDA1BC01CD010E94870E8AA1B6
:102650009BA1ACA1BDA18FA398A7A9A7BAA71EA2B1
:102660008FCD629FD001739FF001829FE00DF11D1D
:10267000649FE00DF11D929FF00D839FF00D749FFC
:10268000F00D659FF00D9927729FB00DE11DF91FA8
:10269000639FB00DE11DF91FBD01CF011124089505
:1026A000A1E21A2EAA1BBB1BFD010DC0AA1FBB1F56
:1026B000EE1FFF1FA217B307E407F50720F0A21BC8
:1026C000B30BE40BF50B661F771F881F991F1A9435
:1026D00069F760957095809590959B01AC01BD015F
:1026E000CF01089597FB092E05260ED057FD04D083
:1026F000D7DF0AD0001C38F45095409530952195CD
:102700003F4F4F4F5F4F0895F6F790958095709526
:1027100061957F4F8F4F9F4F08952F923F924F9219
:102720005F926F927F928F929F92AF92BF92CF9261
:10273000DF92EF92FF920F931F93CF93DF93CDB76A
:10274000DEB7CA1BDB0B0FB6F894DEBF0FBECDBFE2
:1027500009942A88398848885F846E847D848C84B3
:102760009B84AA84B984C884DF80EE80FD800C81BC
:102770001B81AA81B981CE0FD11D0FB6F894DEBF9F
:0C2780000FBECDBFED010895F894FFCF0F
:10278C0000004572726F7221000000000000000012
:10279C00003738392F3435362A3132332D63303DFA
:0227AC002B0000
:00000001FF
